{
  "contractName": "Authentifi",
  "abi": [
    {
      "constant": false,
      "inputs": [
        {
          "internalType": "string",
          "name": "_code",
          "type": "string"
        },
        {
          "internalType": "string",
          "name": "_brand",
          "type": "string"
        },
        {
          "internalType": "string",
          "name": "_model",
          "type": "string"
        },
        {
          "internalType": "uint256",
          "name": "_status",
          "type": "uint256"
        },
        {
          "internalType": "string",
          "name": "_description",
          "type": "string"
        },
        {
          "internalType": "string",
          "name": "_manufactuerName",
          "type": "string"
        },
        {
          "internalType": "string",
          "name": "_manufactuerLocation",
          "type": "string"
        },
        {
          "internalType": "string",
          "name": "_manufactuerTimestamp",
          "type": "string"
        }
      ],
      "name": "createCode",
      "outputs": [
        {
          "internalType": "uint256",
          "name": "",
          "type": "uint256"
        }
      ],
      "payable": true,
      "stateMutability": "payable",
      "type": "function"
    },
    {
      "constant": true,
      "inputs": [
        {
          "internalType": "string",
          "name": "_code",
          "type": "string"
        }
      ],
      "name": "getNotOwnedCodeDetails",
      "outputs": [
        {
          "internalType": "string",
          "name": "",
          "type": "string"
        },
        {
          "internalType": "string",
          "name": "",
          "type": "string"
        },
        {
          "internalType": "uint256",
          "name": "",
          "type": "uint256"
        },
        {
          "internalType": "string",
          "name": "",
          "type": "string"
        },
        {
          "internalType": "string",
          "name": "",
          "type": "string"
        },
        {
          "internalType": "string",
          "name": "",
          "type": "string"
        },
        {
          "internalType": "string",
          "name": "",
          "type": "string"
        }
      ],
      "payable": false,
      "stateMutability": "view",
      "type": "function"
    },
    {
      "constant": true,
      "inputs": [
        {
          "internalType": "string",
          "name": "_code",
          "type": "string"
        }
      ],
      "name": "getOwnedCodeDetails",
      "outputs": [
        {
          "internalType": "string",
          "name": "",
          "type": "string"
        },
        {
          "internalType": "string",
          "name": "",
          "type": "string"
        }
      ],
      "payable": false,
      "stateMutability": "view",
      "type": "function"
    },
    {
      "constant": false,
      "inputs": [
        {
          "internalType": "string",
          "name": "_code",
          "type": "string"
        },
        {
          "internalType": "string",
          "name": "_hashedEmailRetailer",
          "type": "string"
        }
      ],
      "name": "addRetailerToCode",
      "outputs": [
        {
          "internalType": "uint256",
          "name": "",
          "type": "uint256"
        }
      ],
      "payable": true,
      "stateMutability": "payable",
      "type": "function"
    },
    {
      "constant": false,
      "inputs": [
        {
          "internalType": "string",
          "name": "_hashedEmail",
          "type": "string"
        },
        {
          "internalType": "string",
          "name": "_name",
          "type": "string"
        },
        {
          "internalType": "string",
          "name": "_phone",
          "type": "string"
        }
      ],
      "name": "createCustomer",
      "outputs": [
        {
          "internalType": "bool",
          "name": "",
          "type": "bool"
        }
      ],
      "payable": true,
      "stateMutability": "payable",
      "type": "function"
    },
    {
      "constant": true,
      "inputs": [
        {
          "internalType": "string",
          "name": "_code",
          "type": "string"
        }
      ],
      "name": "getCustomerDetails",
      "outputs": [
        {
          "internalType": "string",
          "name": "",
          "type": "string"
        },
        {
          "internalType": "string",
          "name": "",
          "type": "string"
        }
      ],
      "payable": false,
      "stateMutability": "view",
      "type": "function"
    },
    {
      "constant": false,
      "inputs": [
        {
          "internalType": "string",
          "name": "_hashedEmail",
          "type": "string"
        },
        {
          "internalType": "string",
          "name": "_retailerName",
          "type": "string"
        },
        {
          "internalType": "string",
          "name": "_retailerLocation",
          "type": "string"
        }
      ],
      "name": "createRetailer",
      "outputs": [
        {
          "internalType": "uint256",
          "name": "",
          "type": "uint256"
        }
      ],
      "payable": true,
      "stateMutability": "payable",
      "type": "function"
    },
    {
      "constant": true,
      "inputs": [
        {
          "internalType": "string",
          "name": "_code",
          "type": "string"
        }
      ],
      "name": "getRetailerDetails",
      "outputs": [
        {
          "internalType": "string",
          "name": "",
          "type": "string"
        },
        {
          "internalType": "string",
          "name": "",
          "type": "string"
        }
      ],
      "payable": false,
      "stateMutability": "view",
      "type": "function"
    },
    {
      "constant": false,
      "inputs": [
        {
          "internalType": "string",
          "name": "_code",
          "type": "string"
        },
        {
          "internalType": "string",
          "name": "_customer",
          "type": "string"
        }
      ],
      "name": "reportStolen",
      "outputs": [
        {
          "internalType": "bool",
          "name": "",
          "type": "bool"
        }
      ],
      "payable": true,
      "stateMutability": "payable",
      "type": "function"
    },
    {
      "constant": false,
      "inputs": [
        {
          "internalType": "string",
          "name": "_code",
          "type": "string"
        },
        {
          "internalType": "string",
          "name": "_oldCustomer",
          "type": "string"
        },
        {
          "internalType": "string",
          "name": "_newCustomer",
          "type": "string"
        }
      ],
      "name": "changeOwner",
      "outputs": [
        {
          "internalType": "bool",
          "name": "",
          "type": "bool"
        }
      ],
      "payable": true,
      "stateMutability": "payable",
      "type": "function"
    },
    {
      "constant": false,
      "inputs": [
        {
          "internalType": "string",
          "name": "_code",
          "type": "string"
        },
        {
          "internalType": "string",
          "name": "_retailer",
          "type": "string"
        },
        {
          "internalType": "string",
          "name": "_customer",
          "type": "string"
        }
      ],
      "name": "initialOwner",
      "outputs": [
        {
          "internalType": "bool",
          "name": "",
          "type": "bool"
        }
      ],
      "payable": true,
      "stateMutability": "payable",
      "type": "function"
    },
    {
      "constant": true,
      "inputs": [
        {
          "internalType": "string",
          "name": "_customer",
          "type": "string"
        }
      ],
      "name": "getCodes",
      "outputs": [
        {
          "internalType": "string[]",
          "name": "",
          "type": "string[]"
        }
      ],
      "payable": false,
      "stateMutability": "view",
      "type": "function"
    }
  ],
  "bytecode": "0x608060405234801561001057600080fd5b50613184806100206000396000f3fe6080604052600436106100a75760003560e01c8063b5bd438b11610064578063b5bd438b146101ed578063c5e697171461021d578063c91e74e31461024d578063ceff2efc1461028b578063ea788dd1146102bb578063ff901040146102f9576100a7565b806310999689146100ac578063285e9e16146100dc57806355b059e81461011a5780637ab9c57c1461014a57806391904ff81461018d578063b3e19d1a146101bd575b600080fd5b6100c660048036036100c19190810190612b4f565b610336565b6040516100d39190612fbc565b60405180910390f35b3480156100e857600080fd5b5061010360048036036100fe9190810190612a0b565b6104a6565b604051610111929190612eec565b60405180910390f35b610134600480360361012f9190810190612ab8565b61066c565b6040516101419190612ed1565b60405180910390f35b34801561015657600080fd5b50610171600480360361016c9190810190612a0b565b61077c565b6040516101849796959493929190612f23565b60405180910390f35b6101a760048036036101a29190810190612a4c565b610c30565b6040516101b49190612ed1565b60405180910390f35b6101d760048036036101d29190810190612a4c565b610db3565b6040516101e49190612fbc565b60405180910390f35b61020760048036036102029190810190612ab8565b610df5565b6040516102149190612fbc565b60405180910390f35b61023760048036036102329190810190612ab8565b610e79565b6040516102449190612ed1565b60405180910390f35b34801561025957600080fd5b50610274600480360361026f9190810190612a0b565b611217565b604051610282929190612eec565b60405180910390f35b6102a560048036036102a09190810190612ab8565b61139d565b6040516102b29190612ed1565b60405180910390f35b3480156102c757600080fd5b506102e260048036036102dd9190810190612a0b565b6122ac565b6040516102f0929190612eec565b60405180910390f35b34801561030557600080fd5b50610320600480360361031b9190810190612a0b565b612432565b60405161032d9190612eaf565b60405180910390f35b6000610340612666565b88816020018190525087816040018190525086816000018181525050858160600181905250848160800181905250838160a00181905250828160c001819052508060018b6040516103919190612e81565b90815260200160405180910390206000820151816000015560208201518160010190805190602001906103c59291906126b2565b5060408201518160020190805190602001906103e29291906126b2565b5060608201518160030190805190602001906103ff9291906126b2565b50608082015181600401908051906020019061041c9291906126b2565b5060a08201518160050190805190602001906104399291906126b2565b5060c08201518160060190805190602001906104569291906126b2565b5060e08201518160070190805190602001906104739291906126b2565b50610100820151816008019080519060200190610491929190612732565b50905050600191505098975050505050505050565b60608060036001846040516104bb9190612e81565b90815260200160405180910390206007016040516104d99190612e98565b908152602001604051809103902060000160036001856040516104fc9190612e81565b908152602001604051809103902060070160405161051a9190612e98565b9081526020016040518091039020600101818054600181600116156101000203166002900480601f0160208091040260200160405190810160405280929190818152602001828054600181600116156101000203166002900480156105c05780601f10610595576101008083540402835291602001916105c0565b820191906000526020600020905b8154815290600101906020018083116105a357829003601f168201915b50505050509150808054600181600116156101000203166002900480601f01602080910402602001604051908101604052809291908181526020018280546001816001161561010002031660029004801561065c5780601f106106315761010080835404028352916020019161065c565b820191906000526020600020905b81548152906001019060200180831161063f57829003601f168201915b5050505050905091509150915091565b600060028460405161067e9190612e81565b908152602001604051809103902060030160009054906101000a900460ff16156106ab5760009050610775565b6106b3612792565b8381600001819052508281602001819052506001816060019015159081151581525050806002866040516106e79190612e81565b908152602001604051809103902060008201518160000190805190602001906107119291906126b2565b50602082015181600101908051906020019061072e9291906126b2565b50604082015181600201908051906020019061074b929190612732565b5060608201518160030160006101000a81548160ff02191690831515021790555090505060019150505b9392505050565b60608060006060806060806001886040516107979190612e81565b90815260200160405180910390206001016001896040516107b89190612e81565b908152602001604051809103902060020160018a6040516107d99190612e81565b90815260200160405180910390206000015460018b6040516107fb9190612e81565b908152602001604051809103902060030160018c60405161081c9190612e81565b908152602001604051809103902060040160018d60405161083d9190612e81565b908152602001604051809103902060050160018e60405161085e9190612e81565b9081526020016040518091039020600601868054600181600116156101000203166002900480601f0160208091040260200160405190810160405280929190818152602001828054600181600116156101000203166002900480156109045780601f106108d957610100808354040283529160200191610904565b820191906000526020600020905b8154815290600101906020018083116108e757829003601f168201915b50505050509650858054600181600116156101000203166002900480601f0160208091040260200160405190810160405280929190818152602001828054600181600116156101000203166002900480156109a05780601f10610975576101008083540402835291602001916109a0565b820191906000526020600020905b81548152906001019060200180831161098357829003601f168201915b50505050509550838054600181600116156101000203166002900480601f016020809104026020016040519081016040528092919081815260200182805460018160011615610100020316600290048015610a3c5780601f10610a1157610100808354040283529160200191610a3c565b820191906000526020600020905b815481529060010190602001808311610a1f57829003601f168201915b50505050509350828054600181600116156101000203166002900480601f016020809104026020016040519081016040528092919081815260200182805460018160011615610100020316600290048015610ad85780601f10610aad57610100808354040283529160200191610ad8565b820191906000526020600020905b815481529060010190602001808311610abb57829003601f168201915b50505050509250818054600181600116156101000203166002900480601f016020809104026020016040519081016040528092919081815260200182805460018160011615610100020316600290048015610b745780601f10610b4957610100808354040283529160200191610b74565b820191906000526020600020905b815481529060010190602001808311610b5757829003601f168201915b50505050509150808054600181600116156101000203166002900480601f016020809104026020016040519081016040528092919081815260200182805460018160011615610100020316600290048015610c105780601f10610be557610100808354040283529160200191610c10565b820191906000526020600020905b815481529060010190602001808311610bf357829003601f168201915b505050505090509650965096509650965096509650919395979092949650565b600080600283604051610c439190612e81565b908152602001604051809103902060030160009054906101000a900460ff1615610da75760009050600283604051610c7b9190612e81565b908152602001604051809103902060020180549050811015610da657610d6f600284604051610caa9190612e81565b90815260200160405180910390206002018281548110610cc657fe5b906000526020600020018054600181600116156101000203166002900480601f016020809104026020016040519081016040528092919081815260200182805460018160011615610100020316600290048015610d645780601f10610d3957610100808354040283529160200191610d64565b820191906000526020600020905b815481529060010190602001808311610d4757829003601f168201915b50505050508561253c565b15610d9c576002600185604051610d869190612e81565b9081526020016040518091039020600001819055505b6001915050610dad565b5b60009150505b92915050565b600081600184604051610dc69190612e81565b90815260200160405180910390206007019080519060200190610dea9291906127bc565b506001905092915050565b6000610dff61283c565b83816000018190525082816020018190525080600386604051610e229190612e81565b90815260200160405180910390206000820151816000019080519060200190610e4c9291906126b2565b506020820151816001019080519060200190610e699291906126b2565b5090505060019150509392505050565b600080610f3f600186604051610e8f9190612e81565b90815260200160405180910390206007018054600181600116156101000203166002900480601f016020809104026020016040519081016040528092919081815260200182805460018160011615610100020316600290048015610f345780601f10610f0957610100808354040283529160200191610f34565b820191906000526020600020905b815481529060010190602001808311610f1757829003601f168201915b50505050508561253c565b1561120a57600283604051610f549190612e81565b908152602001604051809103902060030160009054906101000a900460ff161561120957600185604051610f889190612e81565b9081526020016040518091039020600801839080600181540180825580915050906001820390600052602060002001600090919290919091509080519060200190610fd49291906127bc565b505060018086604051610fe79190612e81565b908152602001604051809103902060000181905550600060028460405161100e9190612e81565b908152602001604051809103902060020180549050905060008114156111205760028460405161103e9190612e81565b908152602001604051809103902060020186908060018154018082558091505090600182039060005260206000200160009091929091909150908051906020019061108a9291906127bc565b505060028460405161109c9190612e81565b90815260200160405180910390206002018060018154018082558091505090600182039060005260206000200160006040518060400160405280600481526020017f6861636b00000000000000000000000000000000000000000000000000000000815250909190915090805190602001906111199291906127bc565b50506111fe565b856002856040516111319190612e81565b9081526020016040518091039020600201600183038154811061115057fe5b90600052602060002001908051906020019061116d9291906127bc565b5060028460405161117e9190612e81565b90815260200160405180910390206002018060018154018082558091505090600182039060005260206000200160006040518060400160405280600481526020017f6861636b00000000000000000000000000000000000000000000000000000000815250909190915090805190602001906111fb9291906127bc565b50505b600192505050611210565b5b60009150505b9392505050565b60608060028360405161122a9190612e81565b908152602001604051809103902060000160028460405161124b9190612e81565b9081526020016040518091039020600101818054600181600116156101000203166002900480601f0160208091040260200160405190810160405280929190818152602001828054600181600116156101000203166002900480156112f15780601f106112c6576101008083540402835291602001916112f1565b820191906000526020600020905b8154815290600101906020018083116112d457829003601f168201915b50505050509150808054600181600116156101000203166002900480601f01602080910402602001604051908101604052809291908181526020018280546001816001161561010002031660029004801561138d5780601f106113625761010080835404028352916020019161138d565b820191906000526020600020905b81548152906001019060200180831161137057829003601f168201915b5050505050905091509150915091565b60008060008090506113ad612666565b6001876040516113bd9190612e81565b90815260200160405180910390206040518061012001604052908160008201548152602001600182018054600181600116156101000203166002900480601f01602080910402602001604051908101604052809291908181526020018280546001816001161561010002031660029004801561147a5780601f1061144f5761010080835404028352916020019161147a565b820191906000526020600020905b81548152906001019060200180831161145d57829003601f168201915b50505050508152602001600282018054600181600116156101000203166002900480601f01602080910402602001604051908101604052809291908181526020018280546001816001161561010002031660029004801561151c5780601f106114f15761010080835404028352916020019161151c565b820191906000526020600020905b8154815290600101906020018083116114ff57829003601f168201915b50505050508152602001600382018054600181600116156101000203166002900480601f0160208091040260200160405190810160405280929190818152602001828054600181600116156101000203166002900480156115be5780601f10611593576101008083540402835291602001916115be565b820191906000526020600020905b8154815290600101906020018083116115a157829003601f168201915b50505050508152602001600482018054600181600116156101000203166002900480601f0160208091040260200160405190810160405280929190818152602001828054600181600116156101000203166002900480156116605780601f1061163557610100808354040283529160200191611660565b820191906000526020600020905b81548152906001019060200180831161164357829003601f168201915b50505050508152602001600582018054600181600116156101000203166002900480601f0160208091040260200160405190810160405280929190818152602001828054600181600116156101000203166002900480156117025780601f106116d757610100808354040283529160200191611702565b820191906000526020600020905b8154815290600101906020018083116116e557829003601f168201915b50505050508152602001600682018054600181600116156101000203166002900480601f0160208091040260200160405190810160405280929190818152602001828054600181600116156101000203166002900480156117a45780601f10611779576101008083540402835291602001916117a4565b820191906000526020600020905b81548152906001019060200180831161178757829003601f168201915b50505050508152602001600782018054600181600116156101000203166002900480601f0160208091040260200160405190810160405280929190818152602001828054600181600116156101000203166002900480156118465780601f1061181b57610100808354040283529160200191611846565b820191906000526020600020905b81548152906001019060200180831161182957829003601f168201915b5050505050815260200160088201805480602002602001604051908101604052809291908181526020016000905b82821015611930578382906000526020600020018054600181600116156101000203166002900480601f01602080910402602001604051908101604052809291908181526020018280546001816001161561010002031660029004801561191c5780601f106118f15761010080835404028352916020019161191c565b820191906000526020600020905b8154815290600101906020018083116118ff57829003601f168201915b505050505081526020019060010190611874565b50505050815250509050600081610100015151905061194d612792565b60028860405161195d9190612e81565b9081526020016040518091039020604051806080016040529081600082018054600181600116156101000203166002900480601f016020809104026020016040519081016040528092919081815260200182805460018160011615610100020316600290048015611a0f5780601f106119e457610100808354040283529160200191611a0f565b820191906000526020600020905b8154815290600101906020018083116119f257829003601f168201915b50505050508152602001600182018054600181600116156101000203166002900480601f016020809104026020016040519081016040528092919081815260200182805460018160011615610100020316600290048015611ab15780601f10611a8657610100808354040283529160200191611ab1565b820191906000526020600020905b815481529060010190602001808311611a9457829003601f168201915b5050505050815260200160028201805480602002602001604051908101604052809291908181526020016000905b82821015611b9b578382906000526020600020018054600181600116156101000203166002900480601f016020809104026020016040519081016040528092919081815260200182805460018160011615610100020316600290048015611b875780601f10611b5c57610100808354040283529160200191611b87565b820191906000526020600020905b815481529060010190602001808311611b6a57829003601f168201915b505050505081526020019060010190611adf565b5050505081526020016003820160009054906101000a900460ff16151515158152505090506000600289604051611bd29190612e81565b9081526020016040518091039020600201805490509050611bf1612792565b600289604051611c019190612e81565b9081526020016040518091039020604051806080016040529081600082018054600181600116156101000203166002900480601f016020809104026020016040519081016040528092919081815260200182805460018160011615610100020316600290048015611cb35780601f10611c8857610100808354040283529160200191611cb3565b820191906000526020600020905b815481529060010190602001808311611c9657829003601f168201915b50505050508152602001600182018054600181600116156101000203166002900480601f016020809104026020016040519081016040528092919081815260200182805460018160011615610100020316600290048015611d555780601f10611d2a57610100808354040283529160200191611d55565b820191906000526020600020905b815481529060010190602001808311611d3857829003601f168201915b5050505050815260200160028201805480602002602001604051908101604052809291908181526020016000905b82821015611e3f578382906000526020600020018054600181600116156101000203166002900480601f016020809104026020016040519081016040528092919081815260200182805460018160011615610100020316600290048015611e2b5780601f10611e0057610100808354040283529160200191611e2b565b820191906000526020600020905b815481529060010190602001808311611e0e57829003601f168201915b505050505081526020019060010190611d83565b5050505081526020016003820160009054906101000a900460ff161515151581525050905082606001518015611e76575080606001515b1561229957600096505b81871015611ec457611ea983604001518881518110611e9b57fe5b60200260200101518c61253c565b15611eb75760019550611ec4565b8680600101975050611e80565b60011515861515141561229857600096505b83871015611f6257611f008561010001518881518110611ef257fe5b60200260200101518b61253c565b15611f55578860018c604051611f169190612e81565b90815260200160405180910390206008018881548110611f3257fe5b906000526020600020019080519060200190611f4f9291906127bc565b50611f62565b8680600101975050611ed6565b600096505b818710156122975761204760028b604051611f829190612e81565b90815260200160405180910390206002018881548110611f9e57fe5b906000526020600020018054600181600116156101000203166002900480601f01602080910402602001604051908101604052809291908181526020018280546001816001161561010002031660029004801561203c5780601f106120115761010080835404028352916020019161203c565b820191906000526020600020905b81548152906001019060200180831161201f57829003601f168201915b50505050508c61253c565b1561228a576120768760028c6040516120609190612e81565b9081526020016040518091039020600201612595565b50600060028a6040516120899190612e81565b9081526020016040518091039020600201805490509050600081141561219b5760028a6040516120b99190612e81565b90815260200160405180910390206002018c90806001815401808255809150509060018203906000526020600020016000909192909190915090805190602001906121059291906127bc565b505060028a6040516121179190612e81565b90815260200160405180910390206002018060018154018082558091505090600182039060005260206000200160006040518060400160405280600481526020017f6861636b00000000000000000000000000000000000000000000000000000000815250909190915090805190602001906121949291906127bc565b5050612279565b8b60028b6040516121ac9190612e81565b908152602001604051809103902060020160018303815481106121cb57fe5b9060005260206000200190805190602001906121e89291906127bc565b5060028a6040516121f99190612e81565b90815260200160405180910390206002018060018154018082558091505090600182039060005260206000200160006040518060400160405280600481526020017f6861636b00000000000000000000000000000000000000000000000000000000815250909190915090805190602001906122769291906127bc565b50505b6001985050505050505050506122a5565b8680600101975050611f67565b5b5b60009750505050505050505b9392505050565b6060806003836040516122bf9190612e81565b90815260200160405180910390206000016003846040516122e09190612e81565b9081526020016040518091039020600101818054600181600116156101000203166002900480601f0160208091040260200160405190810160405280929190818152602001828054600181600116156101000203166002900480156123865780601f1061235b57610100808354040283529160200191612386565b820191906000526020600020905b81548152906001019060200180831161236957829003601f168201915b50505050509150808054600181600116156101000203166002900480601f0160208091040260200160405190810160405280929190818152602001828054600181600116156101000203166002900480156124225780601f106123f757610100808354040283529160200191612422565b820191906000526020600020905b81548152906001019060200180831161240557829003601f168201915b5050505050905091509150915091565b60606002826040516124449190612e81565b9081526020016040518091039020600201805480602002602001604051908101604052809291908181526020016000905b82821015612531578382906000526020600020018054600181600116156101000203166002900480601f01602080910402602001604051908101604052809291908181526020018280546001816001161561010002031660029004801561251d5780601f106124f25761010080835404028352916020019161251d565b820191906000526020600020905b81548152906001019060200180831161250057829003601f168201915b505050505081526020019060010190612475565b505050509050919050565b60008160405160200161254f9190612e81565b60405160208183030381529060405280519060200120836040516020016125769190612e81565b6040516020818303038152906040528051906020012014905092915050565b6000818054905083106125ab5760009050612660565b60008390505b600183805490500381101561261c578260018201815481106125cf57fe5b906000526020600020018382815481106125e557fe5b90600052602060002001908054600181600116156101000203166002900461260e929190612856565b5080806001019150506125b1565b508160018380549050038154811061263057fe5b90600052602060002001600061264691906128dd565b8180548091906001900361265a9190612925565b50600190505b92915050565b6040518061012001604052806000815260200160608152602001606081526020016060815260200160608152602001606081526020016060815260200160608152602001606081525090565b828054600181600116156101000203166002900490600052602060002090601f016020900481019282601f106126f357805160ff1916838001178555612721565b82800160010185558215612721579182015b82811115612720578251825591602001919060010190612705565b5b50905061272e9190612951565b5090565b828054828255906000526020600020908101928215612781579160200282015b828111156127805782518290805190602001906127709291906126b2565b5091602001919060010190612752565b5b50905061278e9190612976565b5090565b60405180608001604052806060815260200160608152602001606081526020016000151581525090565b828054600181600116156101000203166002900490600052602060002090601f016020900481019282601f106127fd57805160ff191683800117855561282b565b8280016001018555821561282b579182015b8281111561282a57825182559160200191906001019061280f565b5b5090506128389190612951565b5090565b604051806040016040528060608152602001606081525090565b828054600181600116156101000203166002900490600052602060002090601f016020900481019282601f1061288f57805485556128cc565b828001600101855582156128cc57600052602060002091601f016020900482015b828111156128cb5782548255916001019190600101906128b0565b5b5090506128d99190612951565b5090565b50805460018160011615610100020316600290046000825580601f106129035750612922565b601f0160209004906000526020600020908101906129219190612951565b5b50565b81548183558181111561294c5781836000526020600020918201910161294b9190612976565b5b505050565b61297391905b8082111561296f576000816000905550600101612957565b5090565b90565b61299f91905b8082111561299b576000818161299291906128dd565b5060010161297c565b5090565b90565b600082601f8301126129b357600080fd5b81356129c66129c182613004565b612fd7565b915080825260208301602083018583830111156129e257600080fd5b6129ed8382846130d7565b50505092915050565b600081359050612a058161312a565b92915050565b600060208284031215612a1d57600080fd5b600082013567ffffffffffffffff811115612a3757600080fd5b612a43848285016129a2565b91505092915050565b60008060408385031215612a5f57600080fd5b600083013567ffffffffffffffff811115612a7957600080fd5b612a85858286016129a2565b925050602083013567ffffffffffffffff811115612aa257600080fd5b612aae858286016129a2565b9150509250929050565b600080600060608486031215612acd57600080fd5b600084013567ffffffffffffffff811115612ae757600080fd5b612af3868287016129a2565b935050602084013567ffffffffffffffff811115612b1057600080fd5b612b1c868287016129a2565b925050604084013567ffffffffffffffff811115612b3957600080fd5b612b45868287016129a2565b9150509250925092565b600080600080600080600080610100898b031215612b6c57600080fd5b600089013567ffffffffffffffff811115612b8657600080fd5b612b928b828c016129a2565b985050602089013567ffffffffffffffff811115612baf57600080fd5b612bbb8b828c016129a2565b975050604089013567ffffffffffffffff811115612bd857600080fd5b612be48b828c016129a2565b9650506060612bf58b828c016129f6565b955050608089013567ffffffffffffffff811115612c1257600080fd5b612c1e8b828c016129a2565b94505060a089013567ffffffffffffffff811115612c3b57600080fd5b612c478b828c016129a2565b93505060c089013567ffffffffffffffff811115612c6457600080fd5b612c708b828c016129a2565b92505060e089013567ffffffffffffffff811115612c8d57600080fd5b612c998b828c016129a2565b9150509295985092959890939650565b6000612cb58383612dab565b905092915050565b6000612cc882613055565b612cd28185613083565b935083602082028501612ce485613030565b8060005b85811015612d205784840389528151612d018582612ca9565b9450612d0c83613076565b925060208a01995050600181019050612ce8565b50829750879550505050505092915050565b612d3b816130c1565b82525050565b6000612d4c8261306b565b612d5681856130a5565b9350612d668185602086016130e6565b612d6f81613119565b840191505092915050565b6000612d858261306b565b612d8f81856130b6565b9350612d9f8185602086016130e6565b80840191505092915050565b6000612db682613060565b612dc08185613094565b9350612dd08185602086016130e6565b612dd981613119565b840191505092915050565b600081546001811660008114612e015760018114612e2657612e6a565b607f6002830416612e1281876130b6565b955060ff1983168652808601935050612e6a565b60028204612e3481876130b6565b9550612e3f85613040565b60005b82811015612e6157815481890152600182019150602081019050612e42565b82880195505050505b505092915050565b612e7b816130cd565b82525050565b6000612e8d8284612d7a565b915081905092915050565b6000612ea48284612de4565b915081905092915050565b60006020820190508181036000830152612ec98184612cbd565b905092915050565b6000602082019050612ee66000830184612d32565b92915050565b60006040820190508181036000830152612f068185612d41565b90508181036020830152612f1a8184612d41565b90509392505050565b600060e0820190508181036000830152612f3d818a612d41565b90508181036020830152612f518189612d41565b9050612f606040830188612e72565b8181036060830152612f728187612d41565b90508181036080830152612f868186612d41565b905081810360a0830152612f9a8185612d41565b905081810360c0830152612fae8184612d41565b905098975050505050505050565b6000602082019050612fd16000830184612e72565b92915050565b6000604051905081810181811067ffffffffffffffff82111715612ffa57600080fd5b8060405250919050565b600067ffffffffffffffff82111561301b57600080fd5b601f19601f8301169050602081019050919050565b6000819050602082019050919050565b60008190508160005260206000209050919050565b600081519050919050565b600081519050919050565b600081519050919050565b6000602082019050919050565b600082825260208201905092915050565b600082825260208201905092915050565b600082825260208201905092915050565b600081905092915050565b60008115159050919050565b6000819050919050565b82818337600083830152505050565b60005b838110156131045780820151818401526020810190506130e9565b83811115613113576000848401525b50505050565b6000601f19601f8301169050919050565b613133816130cd565b811461313e57600080fd5b5056fea365627a7a7231582076589754f88232940e058c5ec2d735a5b7584e2508b367e1419ceec92ef730ff6c6578706572696d656e74616cf564736f6c63430005100040",
  "source": "pragma solidity ^0.5.16;\r\npragma experimental ABIEncoderV2;\r\n\r\n// Data for testing the functions\r\n// createCode:          \"11\", \"Nike\", \"Jordan\", 0, \"It's costly\", \"Pratibha Co.\", \"Mumbai\", \"11:00\"\r\n//                      \"22\", \"Adidas\", \"Air\", 0, \"It's limited\", \"Prabhat Co.\", \"GUjarat\", \"12:00\"\r\n//                      \"33\", \"Reebok\", \"Ball\", 0, \"It's limited\", \"Prabhat Co.\", \"GUjarat\", \"12:00\"\r\n// createCustomer:      \"81bd53649936d1e82c64ed216d9d7490\", \"Kyle\", \"9869245690\"\r\n//                      \"1c29fb983dbe92474a199631dca38fc6\", \"Calden\", \"9123456789\"\r\n// createRetailer:      \"1111\", \"Lifestyle\", \"Andheri\"\r\n// addRetailerToCode:   \"11\", \"67xasdbsdfshjd89724hjdsf\"\r\n// initialOwner:        \"11\", \"Lifestyle\", \"Kyle\"\r\n//                      \"22\", \"ShopersStop\", \"Calden\"\r\n// changeOwner          \"11\", \"Calden\", \"Kyle\"\r\n\r\n// TODO:\r\n// Remove timestamp from createCustomer\r\n// Removed onlyOwner from Retailer\r\n\r\ncontract Authentifi {\r\n    address owner;\r\n    // string temp;\r\n    // function Authentifi(string _temp) public {\r\n    //     temp = _temp;\r\n    // }\r\n\r\n    // A struct which helps create a new code\r\n    // code is a combination of - brand name, model no, status, description,\r\n    // manufacturer details, retailer details, owner details\r\n    struct codeObj {\r\n        uint status;\r\n        string brand;\r\n        string model;\r\n        string description;\r\n        string manufactuerName;\r\n        string manufactuerLocation;\r\n        string manufactuerTimestamp;\r\n        string retailer;\r\n        string[] customers;\r\n    }\r\n\r\n    // A struct which helps create a new customer\r\n    struct customerObj {\r\n        string name;\r\n        string phone;\r\n        string[] code;\r\n        bool isValue;\r\n    }\r\n\r\n    struct retailerObj {\r\n        string name;\r\n        string location;\r\n    }\r\n\r\n    mapping (string => codeObj) codeArr;\r\n    mapping (string => customerObj) customerArr;\r\n    mapping (string => retailerObj) retailerArr;\r\n    /*\r\n    function createOwner() public {\r\n        owner = msg.sender;\r\n    }\r\n\r\n    modifier onlyOwner {\r\n        require(msg.sender == owner);\r\n        _;\r\n    }\r\n\r\n    function whoIsOwner() public view returns (address) {\r\n        return owner;\r\n    }\r\n*/\r\n    // Function to create a new code for the product\r\n    function createCode(string memory _code, string memory _brand, string memory _model, uint _status, string memory _description, string memory _manufactuerName, string memory _manufactuerLocation, string memory _manufactuerTimestamp) public payable returns (uint) {\r\n        codeObj memory newCode;\r\n        newCode.brand = _brand;\r\n        newCode.model = _model;\r\n        newCode.status = _status;\r\n        newCode.description = _description;\r\n        newCode.manufactuerName = _manufactuerName;\r\n        newCode.manufactuerLocation = _manufactuerLocation;\r\n        newCode.manufactuerTimestamp = _manufactuerTimestamp;\r\n        codeArr[_code] = newCode;\r\n        return 1;\r\n    }\r\n\r\n    // Function for showing product details if the person scanning the product is not the owner\r\n    function getNotOwnedCodeDetails(string memory _code) public view returns (string memory, string memory, uint, string memory, string memory, string memory, string memory) {\r\n        return (codeArr[_code].brand, codeArr[_code].model, codeArr[_code].status, codeArr[_code].description, codeArr[_code].manufactuerName, codeArr[_code].manufactuerLocation, codeArr[_code].manufactuerTimestamp);\r\n    }\r\n\r\n    // Function for showing product details if the person scanning the product is the owner\r\n    function getOwnedCodeDetails(string memory _code) public view returns (string memory, string memory) {\r\n        return (retailerArr[codeArr[_code].retailer].name, retailerArr[codeArr[_code].retailer].location);\r\n    }\r\n\r\n    // Function for creating a new retailer\r\n    function addRetailerToCode(string memory _code, string memory _hashedEmailRetailer) public payable returns (uint) {\r\n        codeArr[_code].retailer = _hashedEmailRetailer;\r\n        return 1;\r\n    }\r\n\r\n    // Function for creating a new customer\r\n    function createCustomer(string memory _hashedEmail, string memory _name, string memory _phone) public payable returns (bool) {\r\n        if (customerArr[_hashedEmail].isValue) {\r\n            return false;\r\n        }\r\n        customerObj memory newCustomer;\r\n        newCustomer.name = _name;\r\n        newCustomer.phone = _phone;\r\n        newCustomer.isValue = true;\r\n        customerArr[_hashedEmail] = newCustomer;\r\n        return true;\r\n    }\r\n\r\n    function getCustomerDetails(string memory _code) public view returns (string memory, string memory) {\r\n        return (customerArr[_code].name, customerArr[_code].phone);\r\n    }\r\n\r\n    function createRetailer(string memory _hashedEmail, string memory _retailerName, string memory _retailerLocation) public payable returns (uint) {\r\n        retailerObj memory newRetailer;\r\n        newRetailer.name = _retailerName;\r\n        newRetailer.location = _retailerLocation;\r\n        retailerArr[_hashedEmail] = newRetailer;\r\n        return 1;\r\n    }\r\n\r\n    function getRetailerDetails(string memory _code) public view returns (string memory, string memory) {\r\n        return (retailerArr[_code].name, retailerArr[_code].location);\r\n    }\r\n\r\n    // Function to report stolen\r\n    function reportStolen(string memory _code, string memory _customer) public payable returns (bool) {\r\n        uint i;\r\n        // Checking if the customer exists\r\n        if (customerArr[_customer].isValue) {\r\n            // Checking if the customer owns the product\r\n            for (i = 0; i < customerArr[_customer].code.length; i++) {\r\n                if (compareStrings(customerArr[_customer].code[i], _code)) {\r\n                    codeArr[_code].status = 2;        // Changing the status to stolen\r\n                }\r\n                return true;\r\n            }\r\n        }\r\n        return false;\r\n    }\r\n\r\n    function changeOwner(string memory _code, string memory _oldCustomer, string memory _newCustomer) public payable returns (bool) {\r\n        uint i;\r\n        bool flag = false;\r\n         //Creating objects for code,oldCustomer,newCustomer\r\n        codeObj memory product = codeArr[_code];\r\n        uint len_product_customer = product.customers.length;\r\n        customerObj memory oldCustomer = customerArr[_oldCustomer];\r\n        uint len_oldCustomer_code = customerArr[_oldCustomer].code.length;\r\n        customerObj memory newCustomer = customerArr[_newCustomer];\r\n\r\n        //Check if oldCustomer and newCustomer have an account\r\n        if (oldCustomer.isValue && newCustomer.isValue) {\r\n            //Check if oldCustomer is owner\r\n            for (i = 0; i < len_oldCustomer_code; i++) {\r\n                if (compareStrings(oldCustomer.code[i], _code)) {\r\n                    flag = true;\r\n                    break;\r\n                }\r\n            }\r\n\r\n            if (flag == true) {\r\n                //Swaping oldCustomer with newCustomer in product\r\n                for (i = 0; i < len_product_customer; i++) {\r\n                    if (compareStrings(product.customers[i], _oldCustomer)) {\r\n                        codeArr[_code].customers[i] = _newCustomer;\r\n                        break;\r\n                    }\r\n                }\r\n\r\n                // Removing product from oldCustomer\r\n                for (i = 0; i < len_oldCustomer_code; i++) {\r\n                    if (compareStrings(customerArr[_oldCustomer].code[i], _code)) {\r\n                        remove(i, customerArr[_oldCustomer].code);\r\n                        // Adding product to newCustomer\r\n                        uint len = customerArr[_newCustomer].code.length;\r\n                        if(len == 0){\r\n                            customerArr[_newCustomer].code.push(_code);\r\n                            customerArr[_newCustomer].code.push(\"hack\");\r\n                        } else {\r\n                            customerArr[_newCustomer].code[len-1] = _code;\r\n                            customerArr[_newCustomer].code.push(\"hack\");\r\n                        }\r\n                        return true;\r\n                    }\r\n                }\r\n            }\r\n        }\r\n        return false;\r\n    }\r\n\r\n\r\n    function initialOwner(string memory _code, string memory _retailer, string memory _customer) public payable returns(bool) {\r\n            uint i;\r\n            if (compareStrings(codeArr[_code].retailer, _retailer)) {       // Check if retailer owns the prodct\r\n                if (customerArr[_customer].isValue) {                       // Check if Customer has an account\r\n                    codeArr[_code].customers.push(_customer);               // Adding customer in code\r\n                    codeArr[_code].status = 1;\r\n                    uint len = customerArr[_customer].code.length;\r\n                    if(len == 0) {\r\n                        customerArr[_customer].code.push(_code);\r\n                        customerArr[_customer].code.push(\"hack\");\r\n                    } else {\r\n                    customerArr[_customer].code[len-1] = _code;\r\n                    customerArr[_customer].code.push(\"hack\");\r\n                    }\r\n                    return true;\r\n                }\r\n            }\r\n            return false;\r\n        }\r\n\r\n    // Given a customer returns all the product codes he owwns\r\n    function getCodes(string memory _customer) public view returns(string[] memory) {\r\n        return customerArr[_customer].code;\r\n    }\r\n\r\n    // Cannot directly compare strings in Solidity\r\n    // This function hashes the 2 strings and then compares the 2 hashes\r\n    function compareStrings(string memory a, string memory b) internal returns (bool) {\r\n    \treturn keccak256(abi.encodePacked(a)) == keccak256(abi.encodePacked(b));\r\n    }\r\n\r\n    // Function to delete an element from an array\r\n    function remove(uint index, string[] storage array) internal returns(bool) {\r\n        if (index >= array.length)\r\n            return false;\r\n\r\n        for (uint i = index; i < array.length-1; i++) {\r\n            array[i] = array[i+1];\r\n        }\r\n        delete array[array.length-1];\r\n        array.length--;\r\n        return true;\r\n    }\r\n\r\n    // Function to convert string to bytes32\r\n    function stringToBytes32(string memory source) internal returns (bytes32 result) {\r\n        bytes memory tempEmptyStringTest = bytes(source);\r\n        if (tempEmptyStringTest.length == 0) {\r\n            return 0x0;\r\n        }\r\n        assembly {\r\n            result := mload(add(source, 32))\r\n        }\r\n    }\r\n}\r\n",
  "sourcePath": "D:\\B.TechCS\\FPI_BLOCKCHAIN\\project\\contracts\\authentifi.sol",
  "compiler": {
    "name": "solc",
    "version": "0.5.16+commit.9c3226ce.Emscripten.clang"
  },
  "schemaVersion": "3.4.2",
  "updatedAt": "2021-08-19T10:29:39.634Z",
  "devdoc": {
    "methods": {}
  },
  "userdoc": {
    "methods": {}
  }
}